{
  "contractName": "Auction",
  "abi": [
    {
      "inputs": [
        {
          "internalType": "address",
          "name": "_creator",
          "type": "address"
        },
        {
          "internalType": "string",
          "name": "_itemName",
          "type": "string"
        },
        {
          "internalType": "uint256",
          "name": "_startingBid",
          "type": "uint256"
        },
        {
          "internalType": "uint256",
          "name": "_durationInSeconds",
          "type": "uint256"
        }
      ],
      "stateMutability": "nonpayable",
      "type": "constructor"
    },
    {
      "anonymous": false,
      "inputs": [
        {
          "indexed": true,
          "internalType": "address",
          "name": "winner",
          "type": "address"
        },
        {
          "indexed": false,
          "internalType": "uint256",
          "name": "amount",
          "type": "uint256"
        }
      ],
      "name": "AuctionEnded",
      "type": "event"
    },
    {
      "anonymous": false,
      "inputs": [
        {
          "indexed": true,
          "internalType": "address",
          "name": "bidder",
          "type": "address"
        },
        {
          "indexed": false,
          "internalType": "uint256",
          "name": "amount",
          "type": "uint256"
        },
        {
          "indexed": false,
          "internalType": "uint256",
          "name": "timestamp",
          "type": "uint256"
        }
      ],
      "name": "BidPlaced",
      "type": "event"
    },
    {
      "anonymous": false,
      "inputs": [
        {
          "indexed": true,
          "internalType": "address",
          "name": "bidder",
          "type": "address"
        },
        {
          "indexed": false,
          "internalType": "uint256",
          "name": "amount",
          "type": "uint256"
        }
      ],
      "name": "BidRefunded",
      "type": "event"
    },
    {
      "anonymous": false,
      "inputs": [
        {
          "indexed": true,
          "internalType": "address",
          "name": "buyer",
          "type": "address"
        },
        {
          "indexed": true,
          "internalType": "address",
          "name": "seller",
          "type": "address"
        }
      ],
      "name": "DisputeInitiated",
      "type": "event"
    },
    {
      "anonymous": false,
      "inputs": [
        {
          "indexed": true,
          "internalType": "address",
          "name": "recipient",
          "type": "address"
        },
        {
          "indexed": false,
          "internalType": "uint256",
          "name": "amount",
          "type": "uint256"
        }
      ],
      "name": "FundsReleased",
      "type": "event"
    },
    {
      "anonymous": false,
      "inputs": [
        {
          "indexed": true,
          "internalType": "address",
          "name": "recipient",
          "type": "address"
        },
        {
          "indexed": false,
          "internalType": "uint256",
          "name": "amount",
          "type": "uint256"
        },
        {
          "indexed": false,
          "internalType": "bool",
          "name": "success",
          "type": "bool"
        }
      ],
      "name": "FundsTransferAttempted",
      "type": "event"
    },
    {
      "anonymous": false,
      "inputs": [
        {
          "indexed": true,
          "internalType": "address",
          "name": "buyer",
          "type": "address"
        }
      ],
      "name": "ItemConfirmed",
      "type": "event"
    },
    {
      "anonymous": false,
      "inputs": [
        {
          "indexed": false,
          "internalType": "enum Auction.ItemStatus",
          "name": "status",
          "type": "uint8"
        }
      ],
      "name": "ItemStatusUpdated",
      "type": "event"
    },
    {
      "anonymous": false,
      "inputs": [
        {
          "indexed": true,
          "internalType": "address",
          "name": "bidder",
          "type": "address"
        },
        {
          "indexed": false,
          "internalType": "uint256",
          "name": "amount",
          "type": "uint256"
        },
        {
          "indexed": true,
          "internalType": "address",
          "name": "previousBidder",
          "type": "address"
        },
        {
          "indexed": false,
          "internalType": "uint256",
          "name": "refundAmount",
          "type": "uint256"
        }
      ],
      "name": "NewHighestBid",
      "type": "event"
    },
    {
      "anonymous": false,
      "inputs": [
        {
          "indexed": true,
          "internalType": "address",
          "name": "bidder",
          "type": "address"
        },
        {
          "indexed": false,
          "internalType": "uint256",
          "name": "amount",
          "type": "uint256"
        },
        {
          "indexed": false,
          "internalType": "bool",
          "name": "success",
          "type": "bool"
        }
      ],
      "name": "RefundAttempted",
      "type": "event"
    },
    {
      "anonymous": false,
      "inputs": [
        {
          "indexed": true,
          "internalType": "address",
          "name": "recipient",
          "type": "address"
        },
        {
          "indexed": false,
          "internalType": "uint256",
          "name": "amount",
          "type": "uint256"
        },
        {
          "indexed": false,
          "internalType": "bytes32",
          "name": "txHash",
          "type": "bytes32"
        }
      ],
      "name": "TransactionLogged",
      "type": "event"
    },
    {
      "inputs": [],
      "name": "CONFIRMATION_PERIOD",
      "outputs": [
        {
          "internalType": "uint256",
          "name": "",
          "type": "uint256"
        }
      ],
      "stateMutability": "view",
      "type": "function"
    },
    {
      "inputs": [],
      "name": "MIN_INCREMENT",
      "outputs": [
        {
          "internalType": "uint256",
          "name": "",
          "type": "uint256"
        }
      ],
      "stateMutability": "view",
      "type": "function"
    },
    {
      "inputs": [],
      "name": "auctionCreator",
      "outputs": [
        {
          "internalType": "address",
          "name": "",
          "type": "address"
        }
      ],
      "stateMutability": "view",
      "type": "function"
    },
    {
      "inputs": [
        {
          "internalType": "uint256",
          "name": "",
          "type": "uint256"
        }
      ],
      "name": "bidHistory",
      "outputs": [
        {
          "internalType": "address",
          "name": "bidder",
          "type": "address"
        },
        {
          "internalType": "uint256",
          "name": "amount",
          "type": "uint256"
        },
        {
          "internalType": "uint256",
          "name": "timestamp",
          "type": "uint256"
        }
      ],
      "stateMutability": "view",
      "type": "function"
    },
    {
      "inputs": [],
      "name": "confirmationDeadline",
      "outputs": [
        {
          "internalType": "uint256",
          "name": "",
          "type": "uint256"
        }
      ],
      "stateMutability": "view",
      "type": "function"
    },
    {
      "inputs": [],
      "name": "disputed",
      "outputs": [
        {
          "internalType": "bool",
          "name": "",
          "type": "bool"
        }
      ],
      "stateMutability": "view",
      "type": "function"
    },
    {
      "inputs": [],
      "name": "endTime",
      "outputs": [
        {
          "internalType": "uint256",
          "name": "",
          "type": "uint256"
        }
      ],
      "stateMutability": "view",
      "type": "function"
    },
    {
      "inputs": [],
      "name": "ended",
      "outputs": [
        {
          "internalType": "bool",
          "name": "",
          "type": "bool"
        }
      ],
      "stateMutability": "view",
      "type": "function"
    },
    {
      "inputs": [],
      "name": "highestBid",
      "outputs": [
        {
          "internalType": "uint256",
          "name": "",
          "type": "uint256"
        }
      ],
      "stateMutability": "view",
      "type": "function"
    },
    {
      "inputs": [],
      "name": "highestBidder",
      "outputs": [
        {
          "internalType": "address",
          "name": "",
          "type": "address"
        }
      ],
      "stateMutability": "view",
      "type": "function"
    },
    {
      "inputs": [],
      "name": "itemConfirmed",
      "outputs": [
        {
          "internalType": "bool",
          "name": "",
          "type": "bool"
        }
      ],
      "stateMutability": "view",
      "type": "function"
    },
    {
      "inputs": [],
      "name": "itemName",
      "outputs": [
        {
          "internalType": "string",
          "name": "",
          "type": "string"
        }
      ],
      "stateMutability": "view",
      "type": "function"
    },
    {
      "inputs": [],
      "name": "itemStatus",
      "outputs": [
        {
          "internalType": "enum Auction.ItemStatus",
          "name": "",
          "type": "uint8"
        }
      ],
      "stateMutability": "view",
      "type": "function"
    },
    {
      "inputs": [],
      "name": "startingBid",
      "outputs": [
        {
          "internalType": "uint256",
          "name": "",
          "type": "uint256"
        }
      ],
      "stateMutability": "view",
      "type": "function"
    },
    {
      "inputs": [],
      "name": "totalEscrowed",
      "outputs": [
        {
          "internalType": "uint256",
          "name": "",
          "type": "uint256"
        }
      ],
      "stateMutability": "view",
      "type": "function"
    },
    {
      "stateMutability": "payable",
      "type": "receive"
    },
    {
      "inputs": [],
      "name": "placeBid",
      "outputs": [],
      "stateMutability": "payable",
      "type": "function"
    },
    {
      "inputs": [],
      "name": "endAuction",
      "outputs": [],
      "stateMutability": "nonpayable",
      "type": "function"
    },
    {
      "inputs": [],
      "name": "confirmReceipt",
      "outputs": [],
      "stateMutability": "nonpayable",
      "type": "function"
    },
    {
      "inputs": [],
      "name": "initiateDispute",
      "outputs": [],
      "stateMutability": "nonpayable",
      "type": "function"
    },
    {
      "inputs": [
        {
          "internalType": "bool",
          "name": "awardToSeller",
          "type": "bool"
        }
      ],
      "name": "resolveDispute",
      "outputs": [],
      "stateMutability": "nonpayable",
      "type": "function"
    },
    {
      "inputs": [],
      "name": "getBidHistory",
      "outputs": [
        {
          "components": [
            {
              "internalType": "address",
              "name": "bidder",
              "type": "address"
            },
            {
              "internalType": "uint256",
              "name": "amount",
              "type": "uint256"
            },
            {
              "internalType": "uint256",
              "name": "timestamp",
              "type": "uint256"
            }
          ],
          "internalType": "struct Auction.Bid[]",
          "name": "",
          "type": "tuple[]"
        }
      ],
      "stateMutability": "view",
      "type": "function"
    },
    {
      "inputs": [],
      "name": "getAuctionDetails",
      "outputs": [
        {
          "internalType": "address",
          "name": "creator",
          "type": "address"
        },
        {
          "internalType": "string",
          "name": "name",
          "type": "string"
        },
        {
          "internalType": "uint256",
          "name": "startBid",
          "type": "uint256"
        },
        {
          "internalType": "uint256",
          "name": "endTime_",
          "type": "uint256"
        },
        {
          "internalType": "bool",
          "name": "isEnded",
          "type": "bool"
        },
        {
          "internalType": "bool",
          "name": "isItemConfirmed",
          "type": "bool"
        },
        {
          "internalType": "bool",
          "name": "isDisputed",
          "type": "bool"
        },
        {
          "internalType": "uint256",
          "name": "confirmDeadline",
          "type": "uint256"
        },
        {
          "internalType": "address",
          "name": "currentWinner",
          "type": "address"
        },
        {
          "internalType": "uint256",
          "name": "currentBid",
          "type": "uint256"
        },
        {
          "internalType": "enum Auction.ItemStatus",
          "name": "itemStatus_",
          "type": "uint8"
        }
      ],
      "stateMutability": "view",
      "type": "function"
    }
  ],
  "bytecode": "0x60806040523480156200001157600080fd5b5060405162001e6c38038062001e6c83398101604081905262000034916200023b565b60016000556001600160a01b038416620000955760405162461bcd60e51b815260206004820152601760248201527f496e76616c69642063726561746f72206164647265737300000000000000000060448201526064015b60405180910390fd5b6000835111620000e85760405162461bcd60e51b815260206004820152601960248201527f4974656d206e616d652063616e6e6f7420626520656d7074790000000000000060448201526064016200008c565b60008211620001465760405162461bcd60e51b815260206004820152602360248201527f5374617274696e6720626964206d75737420626520677265617465722074686160448201526206e20360ec1b60648201526084016200008c565b60008111620001985760405162461bcd60e51b815260206004820152601f60248201527f4475726174696f6e206d7573742062652067726561746572207468616e20300060448201526064016200008c565b600180546001600160a01b0319166001600160a01b0386161790556002620001c18482620003d0565b506003829055620001d381426200049c565b600455600a805460ff191690556040517f7a93f763b7ce44926e29e11190c1547a5a0f0c0fabb27fb52fcf02ac18342be8906200021390600090620004c4565b60405180910390a150505050620004ed565b634e487b7160e01b600052604160045260246000fd5b600080600080608085870312156200025257600080fd5b84516001600160a01b03811681146200026a57600080fd5b602086810151919550906001600160401b03808211156200028a57600080fd5b818801915088601f8301126200029f57600080fd5b815181811115620002b457620002b462000225565b604051601f8201601f19908116603f01168101908382118183101715620002df57620002df62000225565b816040528281528b86848701011115620002f857600080fd5b600093505b828410156200031c5784840186015181850187015292850192620002fd565b6000928101909501919091525050506040860151606090960151949790965092505050565b600181811c908216806200035657607f821691505b6020821081036200037757634e487b7160e01b600052602260045260246000fd5b50919050565b601f821115620003cb57600081815260208120601f850160051c81016020861015620003a65750805b601f850160051c820191505b81811015620003c757828155600101620003b2565b5050505b505050565b81516001600160401b03811115620003ec57620003ec62000225565b6200040481620003fd845462000341565b846200037d565b602080601f8311600181146200043c5760008415620004235750858301515b600019600386901b1c1916600185901b178555620003c7565b600085815260208120601f198616915b828110156200046d578886015182559484019460019091019084016200044c565b50858210156200048c5787850151600019600388901b60f8161c191681555b5050505050600190811b01905550565b80820180821115620004be57634e487b7160e01b600052601160045260246000fd5b92915050565b6020810160038310620004e757634e487b7160e01b600052602160045260246000fd5b91905290565b61196f80620004fd6000396000f3fe6080604052600436106101385760003560e01c806389e1e82a116100ab578063c57b3fb31161006f578063c57b3fb31461035a578063d57bde7914610370578063ecde973d14610386578063ecfc7ecc146103cb578063f9168231146103d3578063fe67a54b146103e957600080fd5b806389e1e82a146102be57806391f90157146102de578063a50ad359146102fe578063a58387b514610325578063b9fdd5691461034457600080fd5b80633a6dcea2116100fd5780633a6dcea2146101ea57806340401fea146102165780634acc296f14610238578063677f8c141461024f5780637d94ad98146102875780637e50bb831461029c57600080fd5b80629c1cc41461014457806301037d8a146101735780630695c46c1461018a57806312fa6feb146101ba5780633197cbb6146101d457600080fd5b3661013f57005b600080fd5b34801561015057600080fd5b5061016067016345785d8a000081565b6040519081526020015b60405180910390f35b34801561017f57600080fd5b5061016062093a8081565b34801561019657600080fd5b506005546101aa9062010000900460ff1681565b604051901515815260200161016a565b3480156101c657600080fd5b506005546101aa9060ff1681565b3480156101e057600080fd5b5061016060045481565b3480156101f657600080fd5b506101ff6103fe565b60405161016a9b9a999897969594939291906116be565b34801561022257600080fd5b5061022b610512565b60405161016a9190611740565b34801561024457600080fd5b5061024d6105a0565b005b34801561025b57600080fd5b5060015461026f906001600160a01b031681565b6040516001600160a01b03909116815260200161016a565b34801561029357600080fd5b5061024d61079f565b3480156102a857600080fd5b506102b1610aea565b60405161016a919061175a565b3480156102ca57600080fd5b5061024d6102d93660046117bc565b610b6c565b3480156102ea57600080fd5b5060075461026f906001600160a01b031681565b34801561030a57600080fd5b50600a546103189060ff1681565b60405161016a91906117de565b34801561033157600080fd5b506005546101aa90610100900460ff1681565b34801561035057600080fd5b5061016060035481565b34801561036657600080fd5b5061016060065481565b34801561037c57600080fd5b5061016060085481565b34801561039257600080fd5b506103a66103a13660046117f2565b611038565b604080516001600160a01b03909416845260208401929092529082015260600161016a565b61024d611075565b3480156103df57600080fd5b5061016060095481565b3480156103f557600080fd5b5061024d6114c2565b600154600354600454600554600654600754600854600a54600280546000996060998b998a998a998a998a998a998a998a998a996001600160a01b039081169992989297929660ff8085169761010086048216976201000090960482169692959316939116908a9061046f9061180b565b80601f016020809104026020016040519081016040528092919081815260200182805461049b9061180b565b80156104e85780601f106104bd576101008083540402835291602001916104e8565b820191906000526020600020905b8154815290600101906020018083116104cb57829003601f168201915b505050505099509a509a509a509a509a509a509a509a509a509a509a50909192939495969798999a565b6002805461051f9061180b565b80601f016020809104026020016040519081016040528092919081815260200182805461054b9061180b565b80156105985780601f1061056d57610100808354040283529160200191610598565b820191906000526020600020905b81548152906001019060200180831161057b57829003601f168201915b505050505081565b6007546001600160a01b031633146105d35760405162461bcd60e51b81526004016105ca90611845565b60405180910390fd5b6105db6115fd565b60055460ff166105fd5760405162461bcd60e51b81526004016105ca90611886565b600554610100900460ff161561064e5760405162461bcd60e51b8152602060048201526016602482015275125d195b48185b1c9958591e4818dbdb999a5c9b595960521b60448201526064016105ca565b6006544211156106a05760405162461bcd60e51b815260206004820152601b60248201527f436f6e6669726d6174696f6e20706572696f642065787069726564000000000060448201526064016105ca565b60055462010000900460ff16156106f55760405162461bcd60e51b8152602060048201526019602482015278111a5cdc1d5d1948185b1c9958591e481a5b9a5d1a585d1959603a1b60448201526064016105ca565b600580546201000062ff000019909116179055600a805460ff191660021790556001546007546040516001600160a01b0392831692909116907f9dbe511c34d49de83e38099fccc7aaad8bf641f2de99b3dbfe4f7803b246e05690600090a3600a546040517f7a93f763b7ce44926e29e11190c1547a5a0f0c0fabb27fb52fcf02ac18342be89161078b9160ff909116906117de565b60405180910390a161079d6001600055565b565b6007546001600160a01b031633146107c95760405162461bcd60e51b81526004016105ca90611845565b6107d16115fd565b60055460ff166107f35760405162461bcd60e51b81526004016105ca90611886565b600554610100900460ff16156108445760405162461bcd60e51b8152602060048201526016602482015275125d195b48185b1c9958591e4818dbdb999a5c9b595960521b60448201526064016105ca565b60055462010000900460ff16156108995760405162461bcd60e51b8152602060048201526019602482015278111a5cdc1d5d1948185b1c9958591e481a5b9a5d1a585d1959603a1b60448201526064016105ca565b6005805461ff001916610100179055600a805460ff191660011790556007546040516001600160a01b03909116907ffc32b24f151970b237b39558e9e4798dc0f3dbb035b81795504303146d59ac1290600090a2600a546040517f7a93f763b7ce44926e29e11190c1547a5a0f0c0fabb27fb52fcf02ac18342be8916109249160ff909116906117de565b60405180910390a160006008549050806009600082825461094591906118cb565b90915550506001546000906001600160a01b0316825a6040519091906000818181858888f193505050503d806000811461099b576040519150601f19603f3d011682016040523d82523d6000602084013e6109a0565b606091505b50506001546040805185815283151560208201529293506001600160a01b03909116917f7bae178300129b3e4a3ef1fc8893b78a2f6822020ad2115a9a43b4f05db83c70910160405180910390a280610a3b5760405162461bcd60e51b815260206004820152601a60248201527f5472616e7366657220746f2063726561746f72206661696c656400000000000060448201526064016105ca565b6001546040518381526001600160a01b03909116907f221c08a06b07a64803b3787861a3f276212fcccb51c2e6234077a9b8cb13047a9060200160405180910390a26001546040516001600160a01b039091169060008051602061191a833981519152908490610ab3904290859084906020016118de565b60408051601f198184030181528282528051602091820120938352820192909252015b60405180910390a2505061079d6001600055565b6060600b805480602002602001604051908101604052809291908181526020016000905b82821015610b63576000848152602090819020604080516060810182526003860290920180546001600160a01b0316835260018082015484860152600290910154918301919091529083529092019101610b0e565b50505050905090565b6001546001600160a01b03163314610bc65760405162461bcd60e51b815260206004820152601a60248201527f4f6e6c792063726561746f722063616e2063616c6c207468697300000000000060448201526064016105ca565b610bce6115fd565b60055462010000900460ff16610c1e5760405162461bcd60e51b81526020600482015260156024820152744e6f206469737075746520746f207265736f6c766560581b60448201526064016105ca565b6007546001600160a01b0316610c765760405162461bcd60e51b815260206004820152601860248201527f4e6f2077696e6e657220746f207265736f6c766520666f72000000000000000060448201526064016105ca565b600060085490508060096000828254610c8f91906118cb565b90915550508115610e40576001546000906001600160a01b0316825a6040519091906000818181858888f193505050503d8060008114610ceb576040519150601f19603f3d011682016040523d82523d6000602084013e610cf0565b606091505b50506001546040805185815283151560208201529293506001600160a01b03909116917f7bae178300129b3e4a3ef1fc8893b78a2f6822020ad2115a9a43b4f05db83c70910160405180910390a280610d8b5760405162461bcd60e51b815260206004820152601a60248201527f5472616e7366657220746f2063726561746f72206661696c656400000000000060448201526064016105ca565b6001546040518381526001600160a01b03909116907f221c08a06b07a64803b3787861a3f276212fcccb51c2e6234077a9b8cb13047a9060200160405180910390a26001546040516001600160a01b039091169060008051602061191a833981519152908490610e03904290859084906020016118de565b60408051601f1981840301815282825280516020918201209383528201929092520160405180910390a250600a805460ff19166001179055610fdf565b6007546000906001600160a01b0316825a6040519091906000818181858888f193505050503d8060008114610e91576040519150601f19603f3d011682016040523d82523d6000602084013e610e96565b606091505b50506007546040805185815283151560208201529293506001600160a01b03909116917f7bae178300129b3e4a3ef1fc8893b78a2f6822020ad2115a9a43b4f05db83c70910160405180910390a280610f315760405162461bcd60e51b815260206004820152601760248201527f526566756e6420746f20626964646572206661696c656400000000000000000060448201526064016105ca565b6007546040518381526001600160a01b03909116907f221c08a06b07a64803b3787861a3f276212fcccb51c2e6234077a9b8cb13047a9060200160405180910390a26007546040516001600160a01b039091169060008051602061191a833981519152908490610fa9904290859084906020016118de565b60408051601f1981840301815282825280516020918201209383528201929092520160405180910390a250600a805460ff191690555b6005805462ff000019169055600a546040517f7a93f763b7ce44926e29e11190c1547a5a0f0c0fabb27fb52fcf02ac18342be8916110229160ff909116906117de565b60405180910390a1506110356001600055565b50565b600b818154811061104857600080fd5b60009182526020909120600390910201805460018201546002909201546001600160a01b03909116925083565b60045442106110be5760405162461bcd60e51b8152602060048201526015602482015274105d58dd1a5bdb88185b1c9958591e48195b991959605a1b60448201526064016105ca565b6110c66115fd565b6003543410156111115760405162461bcd60e51b8152602060048201526016602482015275109a590818995b1bddc81cdd185c9d1a5b99c8189a5960521b60448201526064016105ca565b67016345785d8a00006008546111279190611906565b34101561116e5760405162461bcd60e51b815260206004820152601560248201527442696420696e6372656d656e7420746f6f206c6f7760581b60448201526064016105ca565b6007546008546001600160a01b0390911690811561135a576000826001600160a01b0316825a6040519091906000818181858888f193505050503d80600081146111d4576040519150601f19603f3d011682016040523d82523d6000602084013e6111d9565b606091505b50506040805184815282151560208201529192506001600160a01b038516917f42f3ef890c695366b5344c833b2a9f828453c1fb548e2722b3d1e838beacd513910160405180910390a2806112605760405162461bcd60e51b815260206004820152600d60248201526c1499599d5b990819985a5b1959609a1b60448201526064016105ca565b816009600082825461127291906118cb565b90915550506040518281526001600160a01b038416907f8377883650d2137d6e6d67bcf2dbb9b1dab287d68240a17ff910b9fb7a0ad5ff9060200160405180910390a2826001600160a01b031660008051602061191a833981519152834286866040516020016112e4939291906118de565b60408051601f1981840301815282825280516020918201209383528201929092520160405180910390a260408051348152602081018490526001600160a01b0385169133917f10941b7e71dd8591dce104016a0ecec9eaa73acc38257476a2ee36b656db211c910160405180910390a350611399565b604080513481526000602082018190529133917f10941b7e71dd8591dce104016a0ecec9eaa73acc38257476a2ee36b656db211c910160405180910390a35b600780546001600160a01b03191633179055346008819055600980546000906113c3908490611906565b9091555050604080516060810182523380825234602080840182815242858701818152600b805460018101825560009190915296517f0175b7a638427703f0dbe7bb9bbf987a2551717b34e79f33b5b1008d1fa01db9600390980297880180546001600160a01b0319166001600160a01b0390921691909117905591517f0175b7a638427703f0dbe7bb9bbf987a2551717b34e79f33b5b1008d1fa01dba87015590517f0175b7a638427703f0dbe7bb9bbf987a2551717b34e79f33b5b1008d1fa01dbb909501949094558451918252810192909252917fdf8644c0a4c21ed214ce69f395675b3a5fcd1039083daea5058898de40ea31499101610ad6565b6004544210156114e45760405162461bcd60e51b81526004016105ca90611886565b6001546001600160a01b0316331461153e5760405162461bcd60e51b815260206004820152601a60248201527f4f6e6c792063726561746f722063616e2063616c6c207468697300000000000060448201526064016105ca565b6115466115fd565b60055460ff16156115915760405162461bcd60e51b8152602060048201526015602482015274105d58dd1a5bdb88185b1c9958591e48195b991959605a1b60448201526064016105ca565b6005805460ff191660011790556115ab62093a8042611906565b6006556007546008546040519081526001600160a01b03909116907fdaec4582d5d9595688c8c98545fdd1c696d41c6aeaeb636737e84ed2f5c00eda9060200160405180910390a261079d6001600055565b60026000540361164f5760405162461bcd60e51b815260206004820152601f60248201527f5265656e7472616e637947756172643a207265656e7472616e742063616c6c0060448201526064016105ca565b6002600055565b6000815180845260005b8181101561167c57602081850181015186830182015201611660565b506000602082860101526020601f19601f83011685010191505092915050565b600381106116ba57634e487b7160e01b600052602160045260246000fd5b9052565b6001600160a01b038c81168252610160602083018190526000916116e48483018f611656565b92508c60408501528b60608501528a1515608085015289151560a085015288151560c08501528760e085015280871661010085015250508361012083015261173061014083018461169c565b9c9b505050505050505050505050565b6020815260006117536020830184611656565b9392505050565b602080825282518282018190526000919060409081850190868401855b828110156117af57815180516001600160a01b0316855286810151878601528501518585015260609093019290850190600101611777565b5091979650505050505050565b6000602082840312156117ce57600080fd5b8135801515811461175357600080fd5b602081016117ec828461169c565b92915050565b60006020828403121561180457600080fd5b5035919050565b600181811c9082168061181f57607f821691505b60208210810361183f57634e487b7160e01b600052602260045260246000fd5b50919050565b60208082526021908201527f4f6e6c792068696768657374206269646465722063616e2063616c6c207468696040820152607360f81b606082015260800190565b602080825260159082015274105d58dd1a5bdb881b9bdd081e595d08195b991959605a1b604082015260600190565b634e487b7160e01b600052601160045260246000fd5b818103818111156117ec576117ec6118b5565b92835260609190911b6bffffffffffffffffffffffff19166020830152603482015260540190565b808201808211156117ec576117ec6118b556fe293915607eebfa98cb92bbd6d20fa90d8bf0eef5ed554fc61d8d67493e81a816a26469706673582212209bb97608af4d585bb46355801eaa8eb4038fdf77cb3d7c3a457b533953810d5a64736f6c63430008140033",
  "immutableReferences": {},
  "source": "// SPDX-License-Identifier: MIT\r\npragma solidity ^0.8.20;\r\n\r\nimport \"@openzeppelin/contracts/security/ReentrancyGuard.sol\";\r\n\r\ncontract Auction is ReentrancyGuard {\r\n    address public auctionCreator;\r\n    string public itemName;\r\n    uint256 public startingBid;\r\n    uint256 public endTime;\r\n    bool public ended;\r\n    bool public itemConfirmed;\r\n    bool public disputed;\r\n    uint256 public confirmationDeadline;\r\n\r\n    address public highestBidder;\r\n    uint256 public highestBid;\r\n    uint256 public constant MIN_INCREMENT = 0.1 ether;\r\n    uint256 public constant CONFIRMATION_PERIOD = 7 days;\r\n\r\n    uint256 public totalEscrowed;\r\n\r\n    enum ItemStatus { WithSeller, WithBidder, Disputed }\r\n    ItemStatus public itemStatus;\r\n\r\n    struct Bid {\r\n        address bidder;\r\n        uint256 amount;\r\n        uint256 timestamp;\r\n    }\r\n    Bid[] public bidHistory;\r\n\r\n    event NewHighestBid(address indexed bidder, uint256 amount, address indexed previousBidder, uint256 refundAmount);\r\n    event AuctionEnded(address indexed winner, uint256 amount);\r\n    event BidPlaced(address indexed bidder, uint256 amount, uint256 timestamp);\r\n    event BidRefunded(address indexed bidder, uint256 amount);\r\n    event RefundAttempted(address indexed bidder, uint256 amount, bool success);\r\n    event ItemConfirmed(address indexed buyer);\r\n    event DisputeInitiated(address indexed buyer, address indexed seller);\r\n    event FundsReleased(address indexed recipient, uint256 amount);\r\n    event FundsTransferAttempted(address indexed recipient, uint256 amount, bool success);\r\n    event ItemStatusUpdated(ItemStatus status);\r\n    event TransactionLogged(address indexed recipient, uint256 amount, bytes32 txHash);\r\n\r\n    constructor(\r\n        address _creator,\r\n        string memory _itemName,\r\n        uint256 _startingBid,\r\n        uint256 _durationInSeconds\r\n    ) {\r\n        require(_creator != address(0), \"Invalid creator address\");\r\n        require(bytes(_itemName).length > 0, \"Item name cannot be empty\");\r\n        require(_startingBid > 0, \"Starting bid must be greater than 0\");\r\n        require(_durationInSeconds > 0, \"Duration must be greater than 0\");\r\n\r\n        auctionCreator = _creator;\r\n        itemName = _itemName;\r\n        startingBid = _startingBid;\r\n        endTime = block.timestamp + _durationInSeconds;\r\n        itemStatus = ItemStatus.WithSeller;\r\n        emit ItemStatusUpdated(itemStatus);\r\n    }\r\n\r\n    receive() external payable {}\r\n\r\n    modifier onlyBeforeEnd() {\r\n        require(block.timestamp < endTime, \"Auction already ended\");\r\n        _;\r\n    }\r\n\r\n    modifier onlyAfterEnd() {\r\n        require(block.timestamp >= endTime, \"Auction not yet ended\");\r\n        _;\r\n    }\r\n\r\n    modifier onlyCreator() {\r\n        require(msg.sender == auctionCreator, \"Only creator can call this\");\r\n        _;\r\n    }\r\n\r\n    modifier onlyHighestBidder() {\r\n        require(msg.sender == highestBidder, \"Only highest bidder can call this\");\r\n        _;\r\n    }\r\n\r\n    function placeBid() external payable onlyBeforeEnd nonReentrant {\r\n        require(msg.value >= startingBid, \"Bid below starting bid\");\r\n        require(msg.value >= highestBid + MIN_INCREMENT, \"Bid increment too low\");\r\n\r\n        address previousBidder = highestBidder;\r\n        uint256 previousBid = highestBid;\r\n\r\n        if (previousBidder != address(0)) {\r\n            (bool success, ) = previousBidder.call{value: previousBid, gas: gasleft()}(\"\");\r\n            emit RefundAttempted(previousBidder, previousBid, success);\r\n            require(success, \"Refund failed\");\r\n            totalEscrowed -= previousBid;\r\n            emit BidRefunded(previousBidder, previousBid);\r\n            emit TransactionLogged(previousBidder, previousBid, keccak256(abi.encodePacked(block.timestamp, previousBidder, previousBid)));\r\n            emit NewHighestBid(msg.sender, msg.value, previousBidder, previousBid);\r\n        } else {\r\n            emit NewHighestBid(msg.sender, msg.value, address(0), 0);\r\n        }\r\n\r\n        highestBidder = msg.sender;\r\n        highestBid = msg.value;\r\n        totalEscrowed += msg.value;\r\n\r\n        bidHistory.push(Bid(msg.sender, msg.value, block.timestamp));\r\n        emit BidPlaced(msg.sender, msg.value, block.timestamp);\r\n    }\r\n\r\n    function endAuction() external onlyAfterEnd onlyCreator nonReentrant {\r\n        require(!ended, \"Auction already ended\");\r\n\r\n        ended = true;\r\n        confirmationDeadline = block.timestamp + CONFIRMATION_PERIOD;\r\n        emit AuctionEnded(highestBidder, highestBid);\r\n    }\r\n\r\n    function confirmReceipt() external onlyHighestBidder nonReentrant {\r\n        require(ended, \"Auction not yet ended\");\r\n        require(!itemConfirmed, \"Item already confirmed\");\r\n        require(!disputed, \"Dispute already initiated\");\r\n\r\n        itemConfirmed = true;\r\n        itemStatus = ItemStatus.WithBidder;\r\n        emit ItemConfirmed(highestBidder);\r\n        emit ItemStatusUpdated(itemStatus);\r\n\r\n        uint256 amount = highestBid;\r\n        totalEscrowed -= amount;\r\n        (bool success, ) = auctionCreator.call{value: amount, gas: gasleft()}(\"\");\r\n        emit FundsTransferAttempted(auctionCreator, amount, success);\r\n        require(success, \"Transfer to creator failed\");\r\n        emit FundsReleased(auctionCreator, amount);\r\n        emit TransactionLogged(auctionCreator, amount, keccak256(abi.encodePacked(block.timestamp, auctionCreator, amount)));\r\n    }\r\n\r\n    function initiateDispute() external onlyHighestBidder nonReentrant {\r\n        require(ended, \"Auction not yet ended\");\r\n        require(!itemConfirmed, \"Item already confirmed\");\r\n        require(block.timestamp <= confirmationDeadline, \"Confirmation period expired\");\r\n        require(!disputed, \"Dispute already initiated\");\r\n\r\n        disputed = true;\r\n        itemStatus = ItemStatus.Disputed;\r\n        emit DisputeInitiated(highestBidder, auctionCreator);\r\n        emit ItemStatusUpdated(itemStatus);\r\n    }\r\n\r\n    function resolveDispute(bool awardToSeller) external onlyCreator nonReentrant {\r\n        require(disputed, \"No dispute to resolve\");\r\n        require(highestBidder != address(0), \"No winner to resolve for\");\r\n\r\n        uint256 amount = highestBid;\r\n        totalEscrowed -= amount;\r\n\r\n        if (awardToSeller) {\r\n            (bool success, ) = auctionCreator.call{value: amount, gas: gasleft()}(\"\");\r\n            emit FundsTransferAttempted(auctionCreator, amount, success);\r\n            require(success, \"Transfer to creator failed\");\r\n            emit FundsReleased(auctionCreator, amount);\r\n            emit TransactionLogged(auctionCreator, amount, keccak256(abi.encodePacked(block.timestamp, auctionCreator, amount)));\r\n            itemStatus = ItemStatus.WithBidder;\r\n        } else {\r\n            (bool success, ) = highestBidder.call{value: amount, gas: gasleft()}(\"\");\r\n            emit FundsTransferAttempted(highestBidder, amount, success);\r\n            require(success, \"Refund to bidder failed\");\r\n            emit FundsReleased(highestBidder, amount);\r\n            emit TransactionLogged(highestBidder, amount, keccak256(abi.encodePacked(block.timestamp, highestBidder, amount)));\r\n            itemStatus = ItemStatus.WithSeller;\r\n        }\r\n\r\n        disputed = false;\r\n        emit ItemStatusUpdated(itemStatus);\r\n    }\r\n\r\n    function getBidHistory() public view returns (Bid[] memory) {\r\n        return bidHistory;\r\n    }\r\n\r\n    function getAuctionDetails() public view returns (\r\n        address creator,\r\n        string memory name,\r\n        uint256 startBid,\r\n        uint256 endTime_,\r\n        bool isEnded,\r\n        bool isItemConfirmed,\r\n        bool isDisputed,\r\n        uint256 confirmDeadline,\r\n        address currentWinner,\r\n        uint256 currentBid,\r\n        ItemStatus itemStatus_\r\n    ) {\r\n        return (\r\n            auctionCreator,\r\n            itemName,\r\n            startingBid,\r\n            endTime,\r\n            ended,\r\n            itemConfirmed,\r\n            disputed,\r\n            confirmationDeadline,\r\n            highestBidder,\r\n            highestBid,\r\n            itemStatus\r\n        );\r\n    }\r\n}\r\n\r\ncontract AuctionFactory {\r\n    address[] public auctions;\r\n    address public owner;\r\n\r\n    event AuctionCreated(\r\n        address indexed auctionAddress,\r\n        string itemName,\r\n        address indexed creator,\r\n        uint256 startingBid,\r\n        uint256 duration\r\n    );\r\n\r\n    constructor() {\r\n        owner = msg.sender;\r\n    }\r\n\r\n    function createAuction(\r\n        string memory _itemName,\r\n        uint256 _startingBid,\r\n        uint256 _durationInSeconds\r\n    ) public {\r\n        require(_durationInSeconds > 0, \"Duration must be greater than 0\");\r\n        Auction newAuction = new Auction(\r\n            msg.sender,\r\n            _itemName,\r\n            _startingBid,\r\n            _durationInSeconds\r\n        );\r\n        auctions.push(address(newAuction));\r\n        emit AuctionCreated(\r\n            address(newAuction),\r\n            _itemName,\r\n            msg.sender,\r\n            _startingBid,\r\n            _durationInSeconds\r\n        );\r\n    }\r\n\r\n    function getAllAuctions() public view returns (address[] memory) {\r\n        return auctions;\r\n    }\r\n\r\n    function getAuctionCount() public view returns (uint256) {\r\n        return auctions.length;\r\n    }\r\n}",
  "sourcePath": "C:\\Users\\komma\\nft-auction-app\\contracts\\AuctionContracts.sol",
  "compiler": {
    "name": "solc",
    "version": "0.8.20+commit.a1b79de6.Emscripten.clang"
  },
  "schemaVersion": "3.4.16",
  "updatedAt": "2025-04-27T08:21:52.243Z",
  "devdoc": {
    "kind": "dev",
    "methods": {},
    "version": 1
  },
  "userdoc": {
    "kind": "user",
    "methods": {},
    "version": 1
  }
}